:100A9600507265737320533120746F207365742010
:100AA6000053657420746865206D61782052482073
:100AB60020004D6178696D756D2052483A200025F9
:100AC60020200053657420746865206D696E20527D
:100AD600482020004D696E696D756D2052483A2098
:100AE6000053657420746865206D61782054656DC7
:100AF6007020004D61782054656D703A20200043C7
:100B06002020200053657420746865206D696E206E
:100B160054656D7020004D696E2054656D703A20E5
:100B260020004F7665722054656D7020616C61728D
:100B36006D20004F76657220524820616C61726D9F
:100B4600202020004552524F5220313031202020A3
:100B56002020202000554E4B4E4F57205345542001
:060B660056414C5545000C
:100800007FDC7E05120DEF120B6C120E90752A1E06
:10081000752C14752B4B752D23752902120F2BE5A2
:1008200029120DC9083D01087F0208E80309510497
:1008300009BF050A2D060A4A0700000A677FD07E15
:1008400007120DEF120B6C7F80120EFE7BFF7A0AEF
:100850007996120E627FC0120EFE753800E538C31D
:100860009410500FAF38740C2FF8E6FF120EE3050A
:100870003880EA120C3AEFB401A575290280A07FF6
:1008800080120EFE7BFF7A0A79A7120E627FC012D9
:100890000EFE7BFF7A0A79B8120E62E52B75F00A1C
:1008A00084FFEF2430FF120EE3E52B75F00A84AFCE
:1008B000F0EF2430FF120EE37BFF7A0A79C5120EA7
:1008C00062120C3AEF120DC908D50108DB0208E0EC
:1008D000030000081F75290302081F052B02081FCB
:1008E000152B02081F02081F7F80120EFE7BFF7A65
:1008F0000A79C9120E627FC0120EFE7BFF7A0A7956
:10090000DA120E62E52D75F00A84FFEF2430FF1233
:100910000EE3E52D75F00A84AFF0EF2430FF120EE0
:10092000E37BFF7A0A79C5120E62120C3AEF120DC0
:10093000C9093E010944020949030000081F75293D
:100940000402081F052D02081F152D02081F0208AA
:100950001F7F80120EFE7BFF7A0A79E7120E627FFC
:10096000C0120EFE7BFF7A0A79F9120E62E52A7533
:10097000F00A84FFEF2430FF120EE3E52A75F00A37
:1009800084AFF0EF2430FF120EE37FDF120EE37B23
:10099000FF7A0B7905120E62120C3AEF120DC9099B
:1009A000AC0109B20209B7030000081F752905024E
:1009B000081F052A02081F152A02081F02081F7FA8
:1009C00080120EFE7BFF7A0B790A120E627FC01234
:1009D0000EFE7BFF7A0B791C120E62E52C75F00A75
:1009E00084FFEF2430FF120EE3E52C75F00A84AF8C
:1009F000F0EF2430FF120EE37FDF120EE37BFF7A6D
:100A00000B7905120E62120C3AEF120DC90A1A0187
:100A10000A20020A25030000081F75290102081F89
:100A2000052C02081F152C02081F02081F7F8012C8
:100A30000EFE7BFF7A0B7928120E62120C3AEF70D1
:100A40000302081F75290402081F7F80120EFE7B17
:100A5000FF7A0B7939120E62120C3AEF700302081A
:100A60001F75290202081F7F80120EFE7BFF7A0B82
:100A7000794A120E627FC0120EFE7BFF7A0B795B01
:100A8000120E62120C3AEF700302081F7529010260
:050A9000081F02081F11
:010A9500223E
:100F2B00438901758C4B758AFDD2AFD2A9D28C2225
:03000B00020E2AB8
:100E2A00C0E0C0D0758C4B758AFDE529B40124E574
:100E3A000BC3952C4007E50BD3952A400575290667
:100E4A008011E50AC3952D4007E50AD3952B400387
:080E5A00752907D0D0D0E03269
:100C3A0075340020B5257F0A7E00120DEF20B51B02
:100C4A00753401753500E535C39432500E20B50B65
:100C5A007F0A7E00120DEF053580EB20B4257F0A4E
:100C6A007E00120DEF20B41B753402753500E53590
:100C7A00C39432500E20B40B7F0A7E00120DEF058A
:100C8A003580EB20B3257F0A7E00120DEF20B31BBF
:100C9A00753403753500E535C39432500E20B30B15
:100CAA007F0A7E00120DEF053580EB20B2257F0A00
:100CBA007E00120DEF20B21B753404753500E53540
:100CCA00C39432500E20B20B7F0A7E00120DEF053C
:050CDA003580EBAF3492
:010CDF0022F2
:100EBA0075370075A0FFC290C287D286D28500E539
:100ECA00A05480F536C2850537E5366007E537D385
:080EDA00940A40E2D290AF3609
:010EE20022ED
:100EE3008F39120EBAEF70FAD287C286C28500001C
:0B0EF3008539A0D2850000C2850022D6
:100EFE008F3A120EBAEF70FAC287C286C285000010
:0B0F0E00853AA0D2850000C2850022B9
:100E90007F38120EFE7F38120EFE7F38120EFE00D3
:100EA00000000000007F38120EFE7F0C120EFE7F45
:0A0EB00006120EFE7F01120EFE2254
:100E62008B2E8A2F8930AB2EAA2FA930120DB0FFFC
:100E7200EF601AAB2EAA2FA930120DB0FF120EE3AB
:0E0E820074012530F530E4352FF52F80D9228C
:040DEF008E238F249C
:100DF300852325852426D3E5269400E52594004004
:100E030025752700752871D3E5289400E5279400FC
:100E1300400AE52815287002152780EBE5261526DC
:060E23007002152580D0CD
:010E290022A6
:100F1900C292D284C2847F147E00120DEFD284D291
:020F2900922212
:100CE0007508007509003084170509E509700205CB
:100CF00008FFAE08D3EF942CEE940140E97F002268
:100D0000C2952084427508007509002084170509E2
:100D1000E50970020508FFAE08D3EF94A7EE940032
:100D200040E97F002275080075090030841C050920
:100D3000E50970020508FFAE08D3EF9432EE940087
:0F0D400040E97F002280037F0022D2957F0122AD
:100D4F00753300C296753100E531C39408504D30AC
:100D5F0084FD0532E532D3946440037FFF22753260
:100D6F000000000000000000000000000000000074
:100D7F000000000000000000000000E53325E0F552
:100D8F003330840205332084FD0532E532D3946479
:100D9F0040037FFF22753200053180ACD296AF330E
:010DAF002221
:100B6C00C297120F19120CE0EF7003020C37C294EB
:100B7C00D291120D4F8F1C120D4F8F1D120D4F8FD6
:100B8C001E120D4F8F1F120D4F8F22208442AF1D4E
:100B9C007E00AD1C7C00ED2FFFEC3EFEAD1E7C00FC
:100BAC00EF2DFFEE3CFEAD1F7C00EF2DFFEE3CFE6B
:100BBC00AD227C00EFB50514EEB50410851C0A853A
:100BCC001D20851E0B851F21D29380BFC29380BB35
:100BDC00750C52750D48750E3AE50A75F00A84FFCE
:100BEC00EF2430F50FE50A75F00A84AFF0EF2430EE
:100BFC00F5107511257512207513207514207515B7
:100C0C002075165475173AE50B75F00A84FFEF241E
:100C1C0030F518E50B75F00A84AFF0EF2430F519B8
:0D0C2C00751ADF751B43D297D29422C29136
:010C39002298
:03000000020F3BB1
:0C0F3B00787FE4F6D8FD75813A020800CA
:100DB000BB010689828A83E0225002E722BBFE0241
:090DC000E32289828A83E4932274
:100DC900D083D082F8E4937012740193700DA3A3B9
:100DD90093F8740193F5828883E4737402936860CD
:060DE900EFA3A3A380DFCD
:00000001FF
