:100A9B00507265737320533120746F20736574200B
:100AAB000053657420746865206D6178205248206E
:100ABB0020004D6178696D756D2052483A200025F4
:100ACB0020200053657420746865206D696E205278
:100ADB00482020004D696E696D756D2052483A2093
:100AEB000053657420746865206D61782054656DC2
:100AFB007020004D61782054656D703A20200043C2
:100B0B002020200053657420746865206D696E2069
:100B1B0054656D7020004D696E2054656D703A20E0
:100B2B0020004F7665722054656D7020616C617288
:100B3B006D20004F76657220524820616C61726D9A
:100B4B00202020004552524F52203130312020209E
:100B5B002020202000554E4B4E4F572053455420FC
:060B6B0056414C55450007
:100800007FDC7E05120DFE120B71120E9F752A23DE
:10081000752C0F752B50752D14752902120F3AE5A2
:1008200029120DD8083D01087F0208E80309510488
:1008300009BF050A2D060A4A0700000A677F8012D1
:100840000F0D7BFF7A0A799B120E717FC0120F0D7C
:10085000753800E538C39410500FAF38740C2FF87A
:10086000E6FF120EF2053880EA120C40EFB40103E5
:100870007529027FC47E09120DFE120B7180A07FC4
:1008800080120F0D7BFF7A0A79AC120E717FC012B5
:100890000F0D7BFF7A0A79BD120E71E52B75F00AF8
:1008A00084FFEF2430FF120EF2E52B75F00A84AFBF
:1008B000F0EF2430FF120EF27BFF7A0A79CA120E93
:1008C00071120C40EF120DD808D50108DB0208E0C8
:1008D000030000081F75290302081F052B02081FCB
:1008E000152B02081F02081F7F80120F0D7BFF7A55
:1008F0000A79CE120E717FC0120F0D7BFF7A0A7932
:10090000DF120E71E52D75F00A84FFEF2430FF121F
:100910000EF2E52D75F00A84AFF0EF2430FF120ED1
:10092000F27BFF7A0A79CA120E71120C40EF120D97
:10093000D8093E010944020949030000081F75292E
:100940000402081F052D02081F152D02081F0208AA
:100950001F7F80120F0D7BFF7A0A79EC120E717FD8
:10096000C0120F0D7BFF7A0A79FE120E71E52A750F
:10097000F00A84FFEF2430FF120EF2E52A75F00A28
:1009800084AFF0EF2430FF120EF27FDF120EF27B05
:10099000FF7A0B790A120E71120C40EF120DD80972
:1009A000AC0109B20209B7030000081F752905024E
:1009B000081F052A02081F152A02081F02081F7FA8
:1009C00080120F0D7BFF7A0B790F120E717FC01210
:1009D0000F0D7BFF7A0B7921120E71E52C75F00A51
:1009E00084FFEF2430FF120EF2E52C75F00A84AF7D
:1009F000F0EF2430FF120EF27FDF120EF27BFF7A4F
:100A00000B790A120E71120C40EF120DD80A1A015E
:100A10000A20020A25030000081F75290102081F89
:100A2000052C02081F152C02081F02081F7F8012C8
:100A30000F0D7BFF7A0B792D120E71120C40EF70A7
:100A40000302081F75290402081F7F80120F0D7B07
:100A5000FF7A0B793E120E71120C40EF7003020800
:100A60001F75290202081F7F80120F0D7BFF7A0B72
:100A7000794F120E717FC0120F0D7BFF7A0B7960D8
:100A8000120E71120C40EF700302081F752901024B
:0A0A9000081F02081FE47E007F002B
:010A9A002239
:100F3A00438901758C4B758AFDD2AFD2A9D28C2216
:03000B00020E39A9
:100E3900C0E0C0D0758C4B758AFDE529B40124E565
:100E49000BC3952C4007E50BD3952A400575290658
:100E59008011E50AC3952D4007E50AD3952B400378
:080E6900752907D0D0D0E0325A
:100C400075340020B5257F0A7E00120DFE20B51BED
:100C5000753401753500E535C39432500E20B50B5F
:100C60007F0A7E00120DFE053580EB20B4257F0A39
:100C70007E00120DFE20B41B753402753500E5357B
:100C8000C39432500E20B40B7F0A7E00120DFE0575
:100C90003580EB20B3257F0A7E00120DFE20B31BAA
:100CA000753403753500E535C39432500E20B30B0F
:100CB0007F0A7E00120DFE053580EB20B2257F0AEB
:100CC0007E00120DFE20B21B753404753500E5352B
:100CD000C39432500E20B20B7F0A7E00120DFE0527
:050CE0003580EBAF348C
:010CE50022EC
:100EC90075370075A0FFC290C287D286D28500E52A
:100ED900A05480F536C2850537E5366007E537D376
:080EE900943240E2D290AF36D2
:010EF10022DE
:100EF2008F39120EC9EF70FAD287C286C2850000FE
:0B0F02008539A0D2850000C2850022C6
:100F0D008F3A120EC9EF70FAC287C286C2850000F1
:0B0F1D00853AA0D2850000C2850022AA
:100E9F007F38120F0D7F38120F0D7F38120F0D0094
:100EAF0000000000007F38120F0D7F0C120F0D7F16
:0A0EBF0006120F0D7F01120F0D2225
:100E71008B2E8A2F8930AB2EAA2FA930120DBFFFDE
:100E8100EF601AAB2EAA2FA930120DBFFF120EF27E
:0E0E910074012530F530E4352FF52F80D9227D
:040DFE008E238F248D
:100E0200852325852426D3E5269400E525940040F4
:100E120025752700752871D3E5289400E5279400ED
:100E2200400AE52815287002152780EBE5261526CD
:060E32007002152580D0BE
:010E38002297
:100F2800C292D284C2847F0F7E00120DFED284D278
:020F3800922203
:100CE6007508007509003084190509E509700205C3
:100CF60008FFAE08D3EF942CEE940140E97F002262
:100D060080E4C29520844675080075090020841980
:100D16000509E50970020508FFAE08D3EF94A7EEB2
:100D2600940040E97F002280E475080075090030D0
:100D3600841E0509E50970020508FFAE08D3EF9485
:100D460032EE940040E97F002280E480037F002297
:050D5600D2957F01228F
:100D5B00753300C296753100E531C39408505020AD
:100D6B00840E0532E532D3946440F47FFF2280EF8A
:100D7B0075320000000000000000000000000000C1
:100D8B00000000000000000000000000E53325E03B
:100D9B00F533308402053330840E0532E532D394BB
:100DAB006440F47FFF2280EF753200053180A9D2B9
:030DBB0096AF33BD
:010DBE002212
:100B7100C297120F28120CE6EF7003020C3DC294CB
:100B8100D291120D5B8F1C120D5B8F1D120D5B8FAD
:100B91001E120D5B8F1F120D5B8F22208443AF1D30
:100BA1007E00AD1C7C00ED2FFFEC3EFEAD1E7C00F7
:100BB100EF2DFFEE3CFEAD1F7C00EF2DFFEE3CFE66
:100BC100AD227C00EFB50514EEB50410851C0A8535
:100BD1001D20851E0B851F21D29380BFC2932280C9
:100BE100BA750C52750D48750E3AE50A75F00A840E
:100BF100FFEF2430F50FE50A75F00A84AFF0EF241A
:100C010030F5107511257512207513207514207596
:100C1100152075165475173AE50B75F00A84FFEF28
:100C21002430F518E50B75F00A84AFF0EF2430F5A8
:0E0C310019751ADF751B43D297D29422C29117
:010C3F002292
:03000000020F4AA2
:0C0F4A00787FE4F6D8FD75813A020800BB
:100DBF00BB010689828A83E0225002E722BBFE0232
:090DCF00E32289828A83E4932265
:100DD800D083D082F8E4937012740193700DA3A3AA
:100DE80093F8740193F5828883E4737402936860BE
:060DF800EFA3A3A380DFBE
:00000001FF
